{
  "_format": "hh-sol-artifact-1",
  "contractName": "RefundGeolocation",
  "sourceName": "contracts/Geolocation.sol",
  "abi": [
    {
      "inputs": [
        {
          "internalType": "uint256",
          "name": "_latitude",
          "type": "uint256"
        },
        {
          "internalType": "uint256",
          "name": "_longtiude",
          "type": "uint256"
        },
        {
          "internalType": "uint256",
          "name": "_range",
          "type": "uint256"
        }
      ],
      "stateMutability": "nonpayable",
      "type": "constructor"
    },
    {
      "anonymous": false,
      "inputs": [
        {
          "indexed": true,
          "internalType": "address",
          "name": "device",
          "type": "address"
        },
        {
          "indexed": false,
          "internalType": "bool",
          "name": "isWithinZone",
          "type": "bool"
        }
      ],
      "name": "ComplianceChecked",
      "type": "event"
    },
    {
      "anonymous": false,
      "inputs": [
        {
          "indexed": true,
          "internalType": "address",
          "name": "device",
          "type": "address"
        },
        {
          "indexed": false,
          "internalType": "uint256",
          "name": "amount",
          "type": "uint256"
        }
      ],
      "name": "RefundProcessed",
      "type": "event"
    },
    {
      "inputs": [],
      "name": "addFunds",
      "outputs": [],
      "stateMutability": "payable",
      "type": "function"
    },
    {
      "inputs": [],
      "name": "avaialableFunds",
      "outputs": [
        {
          "internalType": "uint256",
          "name": "",
          "type": "uint256"
        }
      ],
      "stateMutability": "view",
      "type": "function"
    },
    {
      "inputs": [],
      "name": "company",
      "outputs": [
        {
          "internalType": "address",
          "name": "",
          "type": "address"
        }
      ],
      "stateMutability": "view",
      "type": "function"
    },
    {
      "inputs": [],
      "name": "device",
      "outputs": [
        {
          "internalType": "address",
          "name": "",
          "type": "address"
        }
      ],
      "stateMutability": "view",
      "type": "function"
    },
    {
      "inputs": [],
      "name": "getContractBalance",
      "outputs": [
        {
          "internalType": "uint256",
          "name": "",
          "type": "uint256"
        }
      ],
      "stateMutability": "view",
      "type": "function"
    },
    {
      "inputs": [],
      "name": "isWithinZone",
      "outputs": [
        {
          "internalType": "bool",
          "name": "",
          "type": "bool"
        }
      ],
      "stateMutability": "view",
      "type": "function"
    },
    {
      "inputs": [],
      "name": "latitude",
      "outputs": [
        {
          "internalType": "uint256",
          "name": "",
          "type": "uint256"
        }
      ],
      "stateMutability": "view",
      "type": "function"
    },
    {
      "inputs": [],
      "name": "longitude",
      "outputs": [
        {
          "internalType": "uint256",
          "name": "",
          "type": "uint256"
        }
      ],
      "stateMutability": "view",
      "type": "function"
    },
    {
      "inputs": [],
      "name": "range",
      "outputs": [
        {
          "internalType": "uint256",
          "name": "",
          "type": "uint256"
        }
      ],
      "stateMutability": "view",
      "type": "function"
    },
    {
      "inputs": [
        {
          "internalType": "uint256",
          "name": "_latitude",
          "type": "uint256"
        },
        {
          "internalType": "uint256",
          "name": "_longitude",
          "type": "uint256"
        }
      ],
      "name": "sendCoordinates",
      "outputs": [],
      "stateMutability": "nonpayable",
      "type": "function"
    },
    {
      "inputs": [
        {
          "internalType": "address payable",
          "name": "_recipient",
          "type": "address"
        },
        {
          "internalType": "uint256",
          "name": "_amount",
          "type": "uint256"
        }
      ],
      "name": "withdrawFunds",
      "outputs": [],
      "stateMutability": "nonpayable",
      "type": "function"
    }
  ],
  "bytecode": "0x608060405234801561001057600080fd5b50604051610ca0380380610ca0833981810160405281019061003291906100cb565b33600160006101000a81548173ffffffffffffffffffffffffffffffffffffffff021916908373ffffffffffffffffffffffffffffffffffffffff16021790555082600381905550816004819055508060058190555050505061011e565b600080fd5b6000819050919050565b6100a881610095565b81146100b357600080fd5b50565b6000815190506100c58161009f565b92915050565b6000806000606084860312156100e4576100e3610090565b5b60006100f2868287016100b6565b9350506020610103868287016100b6565b9250506040610114868287016100b6565b9150509250925092565b610b738061012d6000396000f3fe60806040526004361061009c5760003560e01c8063c107532911610064578063c107532914610157578063c6326dd014610180578063cceb502a146101ab578063e66d67ee146101d6578063e97206a914610201578063fd1c94be1461022c5761009c565b80634fd7d76a146100a1578063589af69c146100cc5780636904c94d146100f75780636f9fb98a14610122578063a26759cb1461014d575b600080fd5b3480156100ad57600080fd5b506100b6610255565b6040516100c39190610709565b60405180910390f35b3480156100d857600080fd5b506100e161025b565b6040516100ee9190610709565b60405180910390f35b34801561010357600080fd5b5061010c610261565b6040516101199190610765565b60405180910390f35b34801561012e57600080fd5b50610137610287565b6040516101449190610709565b60405180910390f35b61015561028f565b005b34801561016357600080fd5b5061017e600480360381019061017991906107ef565b610339565b005b34801561018c57600080fd5b50610195610471565b6040516101a29190610765565b60405180910390f35b3480156101b757600080fd5b506101c0610497565b6040516101cd919061084a565b60405180910390f35b3480156101e257600080fd5b506101eb6104aa565b6040516101f89190610709565b60405180910390f35b34801561020d57600080fd5b506102166104b0565b6040516102239190610709565b60405180910390f35b34801561023857600080fd5b50610253600480360381019061024e9190610865565b6104b6565b005b60035481565b60045481565b600160009054906101000a900473ffffffffffffffffffffffffffffffffffffffff1681565b600047905090565b600160009054906101000a900473ffffffffffffffffffffffffffffffffffffffff1673ffffffffffffffffffffffffffffffffffffffff163373ffffffffffffffffffffffffffffffffffffffff161461031f576040517f08c379a000000000000000000000000000000000000000000000000000000000815260040161031690610928565b60405180910390fd5b346000808282546103309190610977565b92505081905550565b600160009054906101000a900473ffffffffffffffffffffffffffffffffffffffff1673ffffffffffffffffffffffffffffffffffffffff163373ffffffffffffffffffffffffffffffffffffffff16146103c9576040517f08c379a00000000000000000000000000000000000000000000000000000000081526004016103c090610928565b60405180910390fd5b60005481111561040e576040517f08c379a0000000000000000000000000000000000000000000000000000000008152600401610405906109f7565b60405180910390fd5b8060008082825461041f9190610a17565b925050819055508173ffffffffffffffffffffffffffffffffffffffff166108fc829081150290604051600060405180830381858888f1935050505015801561046c573d6000803e3d6000fd5b505050565b600260009054906101000a900473ffffffffffffffffffffffffffffffffffffffff1681565b600660009054906101000a900460ff1681565b60005481565b60055481565b600260009054906101000a900473ffffffffffffffffffffffffffffffffffffffff1673ffffffffffffffffffffffffffffffffffffffff163373ffffffffffffffffffffffffffffffffffffffff1614610546576040517f08c379a000000000000000000000000000000000000000000000000000000000815260040161053d90610abd565b60405180910390fd5b6105508282610673565b600660006101000a81548160ff021916908315150217905550600260009054906101000a900473ffffffffffffffffffffffffffffffffffffffff1673ffffffffffffffffffffffffffffffffffffffff167f1c5a0f5ae86e033f1654f3c640156bb25241750f5260a6cff1b077136f6af73b600660009054906101000a900460ff166040516105e0919061084a565b60405180910390a2600660009054906101000a900460ff161561066f57600260009054906101000a900473ffffffffffffffffffffffffffffffffffffffff1673ffffffffffffffffffffffffffffffffffffffff167f3367befd2b2f39615cd79917c2153263c4af1d3945ec003e5d5bfc13a8d8583360646040516106669190610b22565b60405180910390a25b5050565b6000808360035411610692576003548461068d9190610a17565b6106a1565b836003546106a09190610a17565b5b9050600083600454116106c157600454846106bc9190610a17565b6106d0565b836004546106cf9190610a17565b5b905060055482111580156106e657506005548111155b9250505092915050565b6000819050919050565b610703816106f0565b82525050565b600060208201905061071e60008301846106fa565b92915050565b600073ffffffffffffffffffffffffffffffffffffffff82169050919050565b600061074f82610724565b9050919050565b61075f81610744565b82525050565b600060208201905061077a6000830184610756565b92915050565b600080fd5b600061079082610724565b9050919050565b6107a081610785565b81146107ab57600080fd5b50565b6000813590506107bd81610797565b92915050565b6107cc816106f0565b81146107d757600080fd5b50565b6000813590506107e9816107c3565b92915050565b6000806040838503121561080657610805610780565b5b6000610814858286016107ae565b9250506020610825858286016107da565b9150509250929050565b60008115159050919050565b6108448161082f565b82525050565b600060208201905061085f600083018461083b565b92915050565b6000806040838503121561087c5761087b610780565b5b600061088a858286016107da565b925050602061089b858286016107da565b9150509250929050565b600082825260208201905092915050565b7f4f6e6c7920436f6d70616e792063616e2063616c6c20746869732066756e637460008201527f696f6e0000000000000000000000000000000000000000000000000000000000602082015250565b60006109126023836108a5565b915061091d826108b6565b604082019050919050565b6000602082019050818103600083015261094181610905565b9050919050565b7f4e487b7100000000000000000000000000000000000000000000000000000000600052601160045260246000fd5b6000610982826106f0565b915061098d836106f0565b92508282019050808211156109a5576109a4610948565b5b92915050565b7f496e73756666696369656e742066756e64730000000000000000000000000000600082015250565b60006109e16012836108a5565b91506109ec826109ab565b602082019050919050565b60006020820190508181036000830152610a10816109d4565b9050919050565b6000610a22826106f0565b9150610a2d836106f0565b9250828203905081811115610a4557610a44610948565b5b92915050565b7f4f6e6c7920446576696365206361716e2063616c6c20746869732066756e637460008201527f696f6e0000000000000000000000000000000000000000000000000000000000602082015250565b6000610aa76023836108a5565b9150610ab282610a4b565b604082019050919050565b60006020820190508181036000830152610ad681610a9a565b9050919050565b6000819050919050565b6000819050919050565b6000610b0c610b07610b0284610add565b610ae7565b6106f0565b9050919050565b610b1c81610af1565b82525050565b6000602082019050610b376000830184610b13565b9291505056fea26469706673582212209ce5693d7c208ba707d409d1eb3ba8f6314cd3ebb92c6a0d022d05e30c17350c64736f6c63430008130033",
  "linkReferences": {},
  "deployedLinkReferences": {}
}